:1001BE004D615765690D0A005772697465204F4B82
:1001CE00210D0A0077686F732773206E616D652CA1
:1001DE006D79206E616D65206973206D617765693B
:0401EE00210D0900D6
:10011200780A7C007D007BFF7A0179D27E007F2005
:100122001200D3E4F594F593F592F591F596F595D1
:10013200F5B2F5B1F5B4F5B3F5CAF5C9F5CCF5CB21
:10014200F5E2F5E17590FE12026C7FFA120244E4C8
:10015200FFFE1202587BFF7A0179BE1201F2E4F52A
:1001620008F509740A2509F8E6FDAF09AE0812027E
:100172002E740A2509F8E6FF1202950509E50970B1
:10018200020508C39432E508940040D77BFF7A0148
:1001920079C61201F2E4F508F509AF09AE081202B8
:1001A200171202950509E50970020508C39432E5A4
:0C01B20008940040E57F9612024480D9BA
:10024400AE071FEE600DE4FCFD0DED70010C4C607B
:03025400EF80F642
:010257002284
:0D027C00E4F5C7F5C5F5C675C380F5C422CD
:1002170075C78275C5018FC48EC375C65A75C6A5C5
:0602270000AFC212027CD0
:01022D0022AE
:10022E0075C78275C5028FC48EC38DC275C65A75C9
:06023E00C6A50002027CCF
:1002580075C78275C5038FC48EC375C65A75C6A582
:040268000002027C12
:10026C0075985A75D7D875D6FF758E14438E0122A2
:080295003099FDC2998F9922F6
:1001F2008B2A8A2B892CAB2AAA2BA92C1200F960F4
:1002020013052CE52C7002052B14F91200F9FF12CC
:05021200029580E222CC
:0300000002028970
:0C028900787FE4F6D8FD75812C0201128C
:10000300E709F608DFFA8046E709F208DFFA803EDF
:1000130088828C83E709F0A3DFFA8032E309F608CC
:10002300DFFA8078E309F208DFFA807088828C8334
:10003300E309F0A3DFFA806489828A83E0A3F608E8
:10004300DFFA805889828A83E0A3F208DFFA804CC2
:1000530080D280FA80C680D4806980F28033801099
:1000630080A680EA809A80A880DA80E280CA803302
:1000730089828A83ECFAE493A3C8C582C8CCC5837A
:10008300CCF0A3C8C582C8CCC583CCDFE9DEE7804A
:100093000D89828A83E493A3F608DFF9ECFAA9F0C9
:1000A300EDFB2289828A83ECFAE0A3C8C582C8CC1F
:1000B300C583CCF0A3C8C582C8CCC583CCDFEADE38
:1000C300E880DB89828A83E493A3F208DFF980CC9A
:1000D30088F0EF60010E4E60C388F0ED2402B40493
:1000E3000050B9F582EB2402B4040050AF2323453A
:0600F3008223900053730C
:1000F900BB010689828A83E0225002E722BBFE0205
:09010900E32289828A83E4932237
:00000001FF
