:0D02C100E4F5C7F5C5F5C675C380F5C42288
:1002570075C78275C5018FC48EC375C65A75C6A585
:0602670000AFC21202C14B
:01026D00226E
:10026E0075C78275C5028FC48EC38DC275C65A7589
:06027E00C6A5000202C14A
:10029A0075C78275C5038FC48EC375C65A75C6A540
:0402AA00000202C18B
:100284006D61776569313233343500616263646569
:06029400666566313200D0
:0802CE00021F000002210200E2
:1000F90078097C007D007BFF7A0279847E007F0B82
:100109001200D378147C007D007BFF7A02798F7E00
:10011900007F0B1200D31202AE12023E12023EAF52
:1001290020AE1F12029A12023EE4F508AF087E00C3
:1001390074092508F8E6FD12026E0508E508C3945E
:100149000A40E9AF22AE2112029A12023EE4F508F2
:10015900E521FEE5224508FF74142508F8E6FD129D
:10016900026E0508E508C3940A40E512023EE4F56B
:1001790008AF087E001202571202D70508E508C326
:10018900940A40EDE4F508E521FEE5224508FF1251
:1001990002571202D70508E508C3940A40E912027A
:0901A9003E12023E12023E80C526
:1002AE00759850438E01438E0475D78F75D6FD43D6
:0302BE008E10227D
:0802D7008F993099FDC29922B4
:04023E007FF47E01CA
:10024200EF1FAC0670011E4C600A7D0C7CA9DCFE1F
:04025200DDFC80EC63
:010256002285
:030000000201B248
:0C01B200787FE4F6D8FD7581220201F987
:10000300E709F608DFFA8046E709F208DFFA803EDF
:1000130088828C83E709F0A3DFFA8032E309F608CC
:10002300DFFA8078E309F208DFFA807088828C8334
:10003300E309F0A3DFFA806489828A83E0A3F608E8
:10004300DFFA805889828A83E0A3F208DFFA804CC2
:1000530080D280FA80C680D4806980F28033801099
:1000630080A680EA809A80A880DA80E280CA803302
:1000730089828A83ECFAE493A3C8C582C8CCC5837A
:10008300CCF0A3C8C582C8CCC583CCDFE9DEE7804A
:100093000D89828A83E493A3F608DFF9ECFAA9F0C9
:1000A300EDFB2289828A83ECFAE0A3C8C582C8CC1F
:1000B300C583CCF0A3C8C582C8CCC583CCDFEADE38
:1000C300E880DB89828A83E493A3F208DFF980CC9A
:1000D30088F0EF60010E4E60C388F0ED2402B40493
:1000E3000050B9F582EB2402B4040050AF2323453A
:0600F3008223900053730C
:1001BE000200F9E493A3F8E493A34003F68001F25E
:1001CE0008DFF48029E493A3F85407240CC8C33342
:1001DE00C4540F4420C8834004F456800146F6DF11
:1001EE00E4800B01020408102040809002CEE47ED1
:1001FE00019360BCA3FF543F30E509541FFEE49306
:10020E00A360010ECF54C025E060A840B8E493A3CC
:10021E00FAE493A3F8E493A3C8C582C8CAC583CAF7
:10022E00F0A3C8C582C8CAC583CADFE9DEE780BEAF
:0102D6000027
:00000001FF
