:04001C00C100C1015D
:1000B200D2AF120003759D1075BC84E4F50BF50AEE
:1000C200F509F508E47F107E27FDFCAB0BAA0AA90F
:1000D20009A808C31201285017E50B2401F50BE407
:1000E200350AF50AE43509F509E43508F50880D43E
:1000F20075BC8C00000000E4FFEF7007E5BC5410F3
:0D010200FF80F675BC84AFBD12019B80E349
:0B018F000000007F0B7EBEDEFEDFFCE8
:01019A002242
:10015E00AD07AC06ED1DAE0470011C4E600512011C
:04016E008F80F1226B
:10017200EF1FAC0670011E4C600500000080F122EA
:10000300759850438E40538EFE53890F758B207520
:090013008DFEC2ABD28ED2AC22EC
:08019B002000FDD2008F992223
:100139008B0C8A0D890EAB0CAA0DA90E12010F604A
:1001490013050EE50E7002050D14F912010FFF12C9
:05015900019B80E22281
:0300230002018255
:0D018200309802C298309904C299C2003230
:03000000020026D5
:0C002600787FE4F6D8FD75813102006D92
:10010F00BB010689828A83E0225002E722BBFE02EE
:09011F00E32289828A83E4932221
:10012800EB9FF5F0EA9E42F0E99D42F0E89C45F02D
:0101380022A4
:100032000200B2E493A3F8E493A34003F68001F232
:1000420008DFF48029E493A3F85407240CC8C333CF
:10005200C4540F4420C8834004F456800146F6DF9E
:10006200E4800B010204081020408090001CE47E12
:10007200019360BCA3FF543F30E509541FFEE49393
:10008200A360010ECF54C025E060A840B8E493A35A
:10009200FAE493A3F8E493A3C8C582C8CAC583CA85
:1000A200F0A3C8C582C8CAC583CADFE9DEE780BE3D
:0100200000DF
:00000001FF
